:020000040000fa
:080000000002040000000000f2
:020000040000fa
:10000800ac020000940200009a020000a002000066
:10001800a6020000ac020000ac020000ac02000026
:10002800ac020000ac020000ac0200004403000077
:10003800ac020000ac020000ac020000ac02000000
:10004800ac020000ac020000ac020000ac020000f0
:10005800ac020000ac020000ac020000ac020000e0
:10006800ac020000ac020000ac020000ac020000d0
:10007800ac020000ac020000ac020000ac020000c0
:10008800ac020000ac020000ac020000ac020000b0
:10009800ac020000ac020000ac020000ac020000a0
:1000a800ac020000ac020000ac020000ac02000090
:1000b800ac020000ac020000ac020000ac02000080
:1000c800ac020000ac020000ac020000ac02000070
:1000d800ac020000ac020000ac020000ac02000060
:1000e800ac020000ac020000ac020000ac02000050
:1000f800ac020000ac020000ac020000ac02000040
:10010800ac020000ac020000ac020000ac0200002f
:10011800ac020000ac020000ac020000ac0200001f
:10012800ac020000ac020000ac020000ac0200000f
:10013800ac020000ac020000ac020000ac020000ff
:10014800ac020000ac020000ac020000ac020000ef
:10015800ac020000ac020000ac020000ac020000df
:10016800ac020000ac020000ac020000ac020000cf
:10017800ac020000ac020000ac020000ac020000bf
:10018800ac020000ac020000ac020000ac020000af
:10019800ac020000ac020000ac020000ac0200009f
:1001a800ac020000ac020000ac020000ac0200008f
:1001b800ac020000ac020000ac020000ac0200007f
:1001c800ac020000ac020000ac020000ac0200006f
:1001d800ac020000ac020000ac020000ac0200005f
:1001e800ac020000ac020000ac020000ac0200004f
:0801f800ac020000ac020000a3
:020000040000fa
:10020800ac020000940200009a020000a002000064
:10021800a6020000ac020000ac020000ac02000024
:10022800ac020000ac020000ac0200004403000075
:10023800ac020000ac020000ac020000ac020000fe
:10024800ac020000ac020000ac020000ac020000ee
:10025800ac020000ac020000ac020000ac020000de
:10026800ac020000ac020000ac020000ac020000ce
:10027800ac020000ac020000ac020000ac020000be
:10028800ac020000ac020000ac020000ac020000ae
:10029800ac020000ac020000ac020000ac0200009e
:1002a800ac020000ac020000ac020000ac0200008e
:1002b800ac020000ac020000ac020000ac0200007e
:1002c800ac020000ac020000ac020000ac0200006e
:1002d800ac020000ac020000ac020000ac0200005e
:1002e800ac020000ac020000ac020000ac0200004e
:1002f800ac020000ac020000ac020000ac0200003e
:10030800ac020000ac020000ac020000ac0200002d
:10031800ac020000ac020000ac020000ac0200001d
:10032800ac020000ac020000ac020000ac0200000d
:10033800ac020000ac020000ac020000ac020000fd
:10034800ac020000ac020000ac020000ac020000ed
:10035800ac020000ac020000ac020000ac020000dd
:10036800ac020000ac020000ac020000ac020000cd
:10037800ac020000ac020000ac020000ac020000bd
:10038800ac020000ac020000ac020000ac020000ad
:10039800ac020000ac020000ac020000ac0200009d
:1003a800ac020000ac020000ac020000ac0200008d
:1003b800ac020000ac020000ac020000ac0200007d
:1003c800ac020000ac020000ac020000ac0200006d
:1003d800ac020000ac020000ac020000ac0200005d
:1003e800ac020000ac020000ac020000ac0200004d
:0803f800ac020000ac020000a1
:020000040000fa
:100400006f8020000e9f20000e0188000000000079
:1004100000012000200288000c000700404020005e
:100420000100200011000700000020000000e00093
:10043000020032000000020000000000120302006f
:10044000000000000040da000000fe004440a90067
:10045000000020000000e000030032000000200047
:10046000a00188004440a800000006009101880017
:10047000800078000000eb0015003700e2804000ab
:1004800032a0b4009101ba00e280400032a0b40072
:100490009102ba00e280400032a0b4000002eb00fa
:1004a000472bde00f507b200602ce10004003a00a3
:1004b0000059eb008301e900fdff3e000400370016
:1004c0006128e100010032000082eb000400070017
:1004d0001101ba000200e000e8ff3a000000060047
:1004e0003159ba008301e9000c0032002159ba00e9
:1004f0008301e900080032000400e00003003a0034
:10050000e280400032a0b400f5ff370011d9ba00f4
:100510008301e900faff3a008100e800e180400031
:1005200032a0b400000006000000fa008020a900fc
:10053000ffff37000000fa008060a900ffff3700ce
:100540000000fa008040a900ffff37000000fa0019
:100550008080a900ffff37000000fa00ffff37008e
:020000040000fa
:100560000000fa00cc22a800d007200001002000e3
:1005700097000700c442a800d00720000100200017
:1005800093000700c442a900cc22a900d007200094
:10059000010020008e0007000080fa000000060025
:1005a0000000fa00cc22a900d007200001002000a2
:1005b00087000700c442a800d007200001002000e7
:1005c00083000700c442a900d007200001002000da
:1005d0007f0007000080fa00000006000200fa0019
:1005e000000f78001e027800e00f52000200320077
:1005f000dbff070001003700e9ff07000080fa0079
:10060000000006000000fa00cc42a800d00720003d
:10061000010020006e000700cc42a9000080fa0013
:10062000000006000000fa00600007007c000700e0
:10063000c822a900c842a900c042a900cc22a90032
:10064000cc42a900c442a9002405800004c0a00037
:1006500004d0a10004e0a00024058800f4ff2700d6
:100660001408880005e1a8000421a80024088000df
:100670000440a1000450a100240888008460a9005f
:100680009460a800ffff37003600f800809fbe008e
:10069000829fbe00849fbe00869fbe003400f8008b
:1006a00000002000a00188000000fa002440800023
:1006b0000402e8002440880025408000f40f200058
:1006c000848f5200020034000002eb0024408800b6
:1006d00025408000040820000482620004007800a5
:1006e000beff070025408000040420000482620051
:1006f00004007800b9ff07002540800004022000b4
:100700000482620004007800b4ff070024408000e7
:100710007002620004007800b0ff070024408000ef
:100720006802620004007800acff070024408000eb
:100730006402620004007800a8ff070024408000e3
:100740006202620004007800a4ff070024408000d9
:100750006102620004007800a0ff0700a9ff070003
:100760008460a9000080fa003400f9004f03be0045
:100770004f02be004f01be004f00be003600f90020
:10078000004006000000fa002174200062042000ee
:100790007305200020c0b3008248780083487800a9
:1007a000804878000080fa00000006000000fa008f
:1007b000243a80000480a0000490a10004a0a100bd
:1007c000243a8800efff07000080fa0000000600ce
:020000040000fa
:1007d000f03fb1000180b10006003500ee030900d2
:1007e00000000000403fb1000180b100fbff3d0070
:1007f0001000b000203fb00002003500008009006a
:080800000000000000000600ea
:020000040000fa
:1008080000080000060000000200000000000000d0
:080818000000000000000000d8
:020000040000fa
:0c0820000000fa000080fa000000060052
:020000040000fa
:0200000401f009
:04000c00860000006a
:00000001FF
